S1230200CE02E0BDE07ECE030BBDE07EBDE047FFA080BD02C2CE0333BDE07EBDE047FFA0F2
S123022082CE035BBDE07ECEA080BDE0C8CE036BBDE07ECEA082BDE0C8CE0372BDE07E860E
S123024001B7A084FEA080A700BCA08227140881802707815527074820ED865520E98601E5
S123026020E5B6A084FEA080E600112622BCA08227140881802707815527074820EA8655BD
S123028020E6860120E236862EBD02C83220B2B7A085F7A086FFA087CE038BBDE07ECEA052
S12302A087BDE0C8CE03A0BDE07ECEA085BDE0CACE03AABDE07EFEA087BDE0CABD02C27E47
S12302C0E0E3CE036F7EE07E36B68004840227F932B7800536B680048401270220E132392D
S12302E00D0A0A426F6227732052414D2074657374202D20626F6240636F727368616D740B
S12303006563682E636F6D0D0A0A04456E746572207374617274696E6720616464726573FA
S1230320732028342068657820646967697473293A2004456E74657220656E64696E672087
S1230340616464726573733A202020202020202020202020202020202020040D0A546573F2
S123036074696E672066726F6D2004746F20040D0A040D0A507265737320616E79206B6531
S12303807920746F2061626F7274040D0A4661696C65642061742061646472657373200426
S11603A06578706563746564200462757420676F742004F7
S503000EEE
